{
  "contractName": "Election",
  "abi": [
    {
      "inputs": [
        {
          "internalType": "string",
          "name": "_electionName",
          "type": "string"
        }
      ],
      "stateMutability": "nonpayable",
      "type": "constructor"
    },
    {
      "anonymous": false,
      "inputs": [
        {
          "indexed": true,
          "internalType": "string",
          "name": "candidateName",
          "type": "string"
        },
        {
          "indexed": false,
          "internalType": "uint256",
          "name": "voteCount",
          "type": "uint256"
        }
      ],
      "name": "ElectionResult",
      "type": "event"
    },
    {
      "anonymous": false,
      "inputs": [
        {
          "indexed": true,
          "internalType": "uint256",
          "name": "candidateId",
          "type": "uint256"
        }
      ],
      "name": "Vote",
      "type": "event"
    },
    {
      "inputs": [],
      "name": "candidateCount",
      "outputs": [
        {
          "internalType": "uint256",
          "name": "",
          "type": "uint256"
        }
      ],
      "stateMutability": "view",
      "type": "function",
      "constant": true
    },
    {
      "inputs": [
        {
          "internalType": "uint256",
          "name": "",
          "type": "uint256"
        }
      ],
      "name": "candidates",
      "outputs": [
        {
          "internalType": "uint256",
          "name": "id",
          "type": "uint256"
        },
        {
          "internalType": "string",
          "name": "name",
          "type": "string"
        },
        {
          "internalType": "uint256",
          "name": "voteCount",
          "type": "uint256"
        }
      ],
      "stateMutability": "view",
      "type": "function",
      "constant": true
    },
    {
      "inputs": [],
      "name": "electionName",
      "outputs": [
        {
          "internalType": "string",
          "name": "",
          "type": "string"
        }
      ],
      "stateMutability": "view",
      "type": "function",
      "constant": true
    },
    {
      "inputs": [],
      "name": "owner",
      "outputs": [
        {
          "internalType": "address",
          "name": "",
          "type": "address"
        }
      ],
      "stateMutability": "view",
      "type": "function",
      "constant": true
    },
    {
      "inputs": [
        {
          "internalType": "address",
          "name": "",
          "type": "address"
        }
      ],
      "name": "voters",
      "outputs": [
        {
          "internalType": "bool",
          "name": "authorized",
          "type": "bool"
        },
        {
          "internalType": "bool",
          "name": "voted",
          "type": "bool"
        }
      ],
      "stateMutability": "view",
      "type": "function",
      "constant": true
    },
    {
      "inputs": [
        {
          "internalType": "string",
          "name": "name",
          "type": "string"
        }
      ],
      "name": "addCandidate",
      "outputs": [
        {
          "internalType": "bool",
          "name": "",
          "type": "bool"
        }
      ],
      "stateMutability": "nonpayable",
      "type": "function"
    },
    {
      "inputs": [
        {
          "internalType": "address",
          "name": "person",
          "type": "address"
        }
      ],
      "name": "authorize",
      "outputs": [
        {
          "internalType": "bool",
          "name": "",
          "type": "bool"
        }
      ],
      "stateMutability": "nonpayable",
      "type": "function"
    },
    {
      "inputs": [
        {
          "internalType": "uint256",
          "name": "candidateId",
          "type": "uint256"
        }
      ],
      "name": "vote",
      "outputs": [
        {
          "internalType": "bool",
          "name": "",
          "type": "bool"
        }
      ],
      "stateMutability": "nonpayable",
      "type": "function"
    },
    {
      "inputs": [],
      "name": "end",
      "outputs": [],
      "stateMutability": "nonpayable",
      "type": "function"
    }
  ],
  "bytecode": "0x60806040523480156200001157600080fd5b5060405162001319380380620013198339818101604052810190620000379190620001b9565b336000806101000a81548173ffffffffffffffffffffffffffffffffffffffff021916908373ffffffffffffffffffffffffffffffffffffffff16021790555080600490805190602001906200008f92919062000097565b50506200032f565b828054620000a5906200029b565b90600052602060002090601f016020900481019282620000c9576000855562000115565b82601f10620000e457805160ff191683800117855562000115565b8280016001018555821562000115579182015b8281111562000114578251825591602001919060010190620000f7565b5b50905062000124919062000128565b5090565b5b808211156200014357600081600090555060010162000129565b5090565b60006200015e620001588462000232565b620001fe565b9050828152602081018484840111156200017757600080fd5b6200018484828562000265565b509392505050565b600082601f8301126200019e57600080fd5b8151620001b084826020860162000147565b91505092915050565b600060208284031215620001cc57600080fd5b600082015167ffffffffffffffff811115620001e757600080fd5b620001f5848285016200018c565b91505092915050565b6000604051905081810181811067ffffffffffffffff8211171562000228576200022762000300565b5b8060405250919050565b600067ffffffffffffffff82111562000250576200024f62000300565b5b601f19601f8301169050602081019050919050565b60005b838110156200028557808201518184015260208101905062000268565b8381111562000295576000848401525b50505050565b60006002820490506001821680620002b457607f821691505b60208210811415620002cb57620002ca620002d1565b5b50919050565b7f4e487b7100000000000000000000000000000000000000000000000000000000600052602260045260246000fd5b7f4e487b7100000000000000000000000000000000000000000000000000000000600052604160045260246000fd5b610fda806200033f6000396000f3fe608060405234801561001057600080fd5b50600436106100b0576000357c0100000000000000000000000000000000000000000000000000000000900480638da5cb5b116100835780638da5cb5b14610165578063a3ec138d14610183578063a9a981a3146101b4578063b6a5d7de146101d2578063efbe1c1c14610202576100b0565b80630121b93f146100b55780633477ee2e146100e5578063462e91ec1461011757806385e8e7a714610147575b600080fd5b6100cf60048036038101906100ca9190610a17565b61020c565b6040516100dc9190610c17565b60405180910390f35b6100ff60048036038101906100fa9190610a17565b61043b565b60405161010e93929190610cf8565b60405180910390f35b610131600480360381019061012c91906109d6565b6104ed565b60405161013e9190610c17565b60405180910390f35b61014f6105d0565b60405161015c9190610c5b565b60405180910390f35b61016d61065e565b60405161017a9190610bfc565b60405180910390f35b61019d600480360381019061019891906109ad565b610682565b6040516101ab929190610c32565b60405180910390f35b6101bc6106c0565b6040516101c99190610cdd565b60405180910390f35b6101ec60048036038101906101e791906109ad565b6106c6565b6040516101f99190610c17565b60405180910390f35b61020a610785565b005b6000600360003373ffffffffffffffffffffffffffffffffffffffff1673ffffffffffffffffffffffffffffffffffffffff16815260200190815260200160002060000160019054906101000a900460ff161561029e576040517f08c379a000000000000000000000000000000000000000000000000000000000815260040161029590610c7d565b60405180910390fd5b600360003373ffffffffffffffffffffffffffffffffffffffff1673ffffffffffffffffffffffffffffffffffffffff16815260200190815260200160002060000160009054906101000a900460ff1661032d576040517f08c379a000000000000000000000000000000000000000000000000000000000815260040161032490610cbd565b60405180910390fd5b60008211801561033f57506002548211155b61037e576040517f08c379a000000000000000000000000000000000000000000000000000000000815260040161037590610c9d565b60405180910390fd5b6001600360003373ffffffffffffffffffffffffffffffffffffffff1673ffffffffffffffffffffffffffffffffffffffff16815260200190815260200160002060000160016101000a81548160ff02191690831515021790555060016000838152602001908152602001600020600201600081548092919061040090610e8f565b9190505550817fdcd6a5cd90707bfd61ed2fddae23e88c584cb5b78a0e9989710a59fd84c0a1f960405160405180910390a260019050919050565b600160205280600052604060002060009150905080600001549080600101805461046490610e5d565b80601f016020809104026020016040519081016040528092919081815260200182805461049090610e5d565b80156104dd5780601f106104b2576101008083540402835291602001916104dd565b820191906000526020600020905b8154815290600101906020018083116104c057829003601f168201915b5050505050908060020154905083565b60008060009054906101000a900473ffffffffffffffffffffffffffffffffffffffff1673ffffffffffffffffffffffffffffffffffffffff163373ffffffffffffffffffffffffffffffffffffffff161461054857600080fd5b6002600081548092919061055b90610e8f565b91905055506040518060600160405280600254815260200183815260200160008152506001600060025481526020019081526020016000206000820151816000015560208201518160010190805190602001906105b9929190610878565b506040820151816002015590505060019050919050565b600480546105dd90610e5d565b80601f016020809104026020016040519081016040528092919081815260200182805461060990610e5d565b80156106565780601f1061062b57610100808354040283529160200191610656565b820191906000526020600020905b81548152906001019060200180831161063957829003601f168201915b505050505081565b60008054906101000a900473ffffffffffffffffffffffffffffffffffffffff1681565b60036020528060005260406000206000915090508060000160009054906101000a900460ff16908060000160019054906101000a900460ff16905082565b60025481565b60008060009054906101000a900473ffffffffffffffffffffffffffffffffffffffff1673ffffffffffffffffffffffffffffffffffffffff163373ffffffffffffffffffffffffffffffffffffffff161461072157600080fd5b6001600360008473ffffffffffffffffffffffffffffffffffffffff1673ffffffffffffffffffffffffffffffffffffffff16815260200190815260200160002060000160006101000a81548160ff02191690831515021790555060019050919050565b60008054906101000a900473ffffffffffffffffffffffffffffffffffffffff1673ffffffffffffffffffffffffffffffffffffffff163373ffffffffffffffffffffffffffffffffffffffff16146107dd57600080fd5b60005b600254811015610875576001600082815260200190815260200160002060010160405161080d9190610be5565b60405180910390207f156b5ffaa1a96772b4d324b6a0492ba5c51abe8a2818c38a0d409faddb63578c600160008481526020019081526020016000206002015460405161085a9190610cdd565b60405180910390a2808061086d90610e8f565b9150506107e0565b50565b82805461088490610e5d565b90600052602060002090601f0160209004810192826108a657600085556108ed565b82601f106108bf57805160ff19168380011785556108ed565b828001600101855582156108ed579182015b828111156108ec5782518255916020019190600101906108d1565b5b5090506108fa91906108fe565b5090565b5b808211156109175760008160009055506001016108ff565b5090565b600061092e61092984610d67565b610d36565b90508281526020810184848401111561094657600080fd5b610951848285610e1b565b509392505050565b60008135905061096881610f76565b92915050565b600082601f83011261097f57600080fd5b813561098f84826020860161091b565b91505092915050565b6000813590506109a781610f8d565b92915050565b6000602082840312156109bf57600080fd5b60006109cd84828501610959565b91505092915050565b6000602082840312156109e857600080fd5b600082013567ffffffffffffffff811115610a0257600080fd5b610a0e8482850161096e565b91505092915050565b600060208284031215610a2957600080fd5b6000610a3784828501610998565b91505092915050565b610a4981610dd3565b82525050565b610a5881610de5565b82525050565b6000610a6982610dac565b610a738185610db7565b9350610a83818560208601610e2a565b610a8c81610f65565b840191505092915050565b60008154610aa481610e5d565b610aae8186610dc8565b94506001821660008114610ac95760018114610ada57610b0d565b60ff19831686528186019350610b0d565b610ae385610d97565b60005b83811015610b0557815481890152600182019150602081019050610ae6565b838801955050505b50505092915050565b6000610b23600d83610db7565b91507f416c726561647920766f746564000000000000000000000000000000000000006000830152602082019050919050565b6000610b63601183610db7565b91507f496e76616c69642063616e6469646174650000000000000000000000000000006000830152602082019050919050565b6000610ba3600a83610db7565b91507f417574686f72697a6564000000000000000000000000000000000000000000006000830152602082019050919050565b610bdf81610e11565b82525050565b6000610bf18284610a97565b915081905092915050565b6000602082019050610c116000830184610a40565b92915050565b6000602082019050610c2c6000830184610a4f565b92915050565b6000604082019050610c476000830185610a4f565b610c546020830184610a4f565b9392505050565b60006020820190508181036000830152610c758184610a5e565b905092915050565b60006020820190508181036000830152610c9681610b16565b9050919050565b60006020820190508181036000830152610cb681610b56565b9050919050565b60006020820190508181036000830152610cd681610b96565b9050919050565b6000602082019050610cf26000830184610bd6565b92915050565b6000606082019050610d0d6000830186610bd6565b8181036020830152610d1f8185610a5e565b9050610d2e6040830184610bd6565b949350505050565b6000604051905081810181811067ffffffffffffffff82111715610d5d57610d5c610f36565b5b8060405250919050565b600067ffffffffffffffff821115610d8257610d81610f36565b5b601f19601f8301169050602081019050919050565b60008190508160005260206000209050919050565b600081519050919050565b600082825260208201905092915050565b600081905092915050565b6000610dde82610df1565b9050919050565b60008115159050919050565b600073ffffffffffffffffffffffffffffffffffffffff82169050919050565b6000819050919050565b82818337600083830152505050565b60005b83811015610e48578082015181840152602081019050610e2d565b83811115610e57576000848401525b50505050565b60006002820490506001821680610e7557607f821691505b60208210811415610e8957610e88610f07565b5b50919050565b6000610e9a82610e11565b91507fffffffffffffffffffffffffffffffffffffffffffffffffffffffffffffffff821415610ecd57610ecc610ed8565b5b600182019050919050565b7f4e487b7100000000000000000000000000000000000000000000000000000000600052601160045260246000fd5b7f4e487b7100000000000000000000000000000000000000000000000000000000600052602260045260246000fd5b7f4e487b7100000000000000000000000000000000000000000000000000000000600052604160045260246000fd5b6000601f19601f8301169050919050565b610f7f81610dd3565b8114610f8a57600080fd5b50565b610f9681610e11565b8114610fa157600080fd5b5056fea2646970667358221220f18dcc5cd82c2d473136ec6c83910f09112351f68c3c842a543e2d256b457ac564736f6c63430008000033",
  "immutableReferences": {},
  "source": "// SPDX-License-Identifier: MIT\n\npragma solidity ^0.8.0;\n\nimport \"./ElectionInterface.sol\";\nimport \"./Ownable.sol\";\n\ncontract Election is Ownable, ElectionInterface {\n    struct Candidate {\n        uint256 id;\n        string name;\n        uint256 voteCount;\n    }\n\n    struct Voter {\n        bool authorized;\n        bool voted;\n    }\n\n    mapping(uint256 => Candidate) public candidates;\n    uint256 public candidateCount;\n\n    mapping(address => Voter) public voters;\n    string public electionName;\n    \n\n    constructor(string memory _electionName) {\n        electionName = _electionName;\n    }\n\n    function addCandidate(string memory name)\n        public\n        virtual\n        override\n        onlyOwner()\n        returns (bool)\n    {\n        candidateCount++;\n        candidates[candidateCount] = Candidate(candidateCount, name, 0);\n\n        return true;\n    }\n\n    function authorize(address person)\n        public\n        virtual\n        override\n        onlyOwner()\n        returns(bool)\n    {\n        voters[person].authorized = true;\n\n        return true;\n    }\n\n    function vote(uint256 candidateId) public virtual override returns (bool) {\n        require(!voters[msg.sender].voted, \"Already voted\");\n        require(voters[msg.sender].authorized, \"Authorized\");\n        require(\n            candidateId > 0 && candidateId <= candidateCount,\n            \"Invalid candidate\"\n        );\n\n        voters[msg.sender].voted = true;\n        candidates[candidateId].voteCount++;\n\n        emit Vote(candidateId);\n\n        return true;\n    }\n\n\n    function end() public override virtual onlyOwner()  {\n        //announce each candidates results\n        for(uint i=0; i < candidateCount; i++) {\n            emit ElectionResult(candidates[i].name, candidates[i].voteCount);\n        }    \n    }\n    \n}\n",
  "sourcePath": "/Users/static/Desktop/Blockchain/voting-app/contracts/Election.sol",
  "compiler": {
    "name": "solc",
    "version": "0.8.0+commit.c7dfd78e.Emscripten.clang"
  },
  "schemaVersion": "3.3.4",
  "updatedAt": "2021-03-17T11:56:56.511Z",
  "networkType": "ethereum",
  "devdoc": {
    "kind": "dev",
    "methods": {},
    "version": 1
  },
  "userdoc": {
    "events": {
      "Vote(uint256)": {
        "notice": "Events "
      }
    },
    "kind": "user",
    "methods": {},
    "version": 1
  }
}